:020000040800F2
:10000000C836002025B2000869B000086DB00008AD
:1000100081B0000893B0000895B00008000000000F
:1000200000000000000000000000000097B0000881
:1000300099B00008000000009BB000089DB00008C7
:10004000A9B20008ADB20008B1B20008B5B200080C
:10005000B9B20008BDB20008C1B20008C5B20008BC
:10006000C9B20008CDB20008D1B20008A1B00008A2
:10007000D5B20008D9B20008DDB20008E1B200082C
:10008000E5B20008E9B20008EDB20008F1B20008DC
:10009000F5B20008F9B20008FDB2000801B300088B
:1000A00005B3000809B300080DB3000811B3000838
:1000B00015B3000819B300081DB3000821B30008E8
:1000C00025B3000829B300082DB3000831B3000898
:1000D00035B30008A7B0000839B300083DB30008E5
:1000E00041B3000845B300080000000049B3000810
:1000F0004DB3000851B3000855B3000859B30008C8
:100100005DB3000861B3000865B3000869B3000877
:100110006DB3000871B3000875B3000879B3000827
:100120007DB3000881B3000885B3000889B30008D7
:100130008DB3000891B3000895B3000899B3000887
:1001400000000000000000000000000000000000AF
:100150009DB30008A1B30008A5B30008A9B3000827
:10016000ADB30008B1B30008B5B30008B9B30008D7
:10017000BDB30008C1B30008C5B30008C9B3000887
:10018000CDB30008D1B30008D5B30008D9B3000837
:10019000ADB00008DDB30008E1B30008E5B3000826
:1001A000E9B30008EDB30008F1B30008F5B30008A7
:1001B000F9B30008FDB3000801B4000805B4000855
:1001C00009B400080DB4000811B4000815B4000803
:1001D00019B400081DB4000821B4000825B40008B3
:1001E00029B400082DB4000831B4000835B4000863
:1001F00039B400083DB4000841B4000845B4000813
:1002000049B400084DB4000851B4000855B40008C2
:1002100059B400085DB4000861B4000865B4000872
:1002200069B400086DB4000871B400080000000053
:1002300075B4000879B40008000000007DB400081F
:1002400081B4000885B4000889B400088DB40008A2
:1002500091B4000895B4000899B400089DB4000852
:10026000A1B40008A5B40008A9B40008ADB4000802
:10027000B1B40008B5B40008B9B40008000000002B
:10028000BDB40008C1B40008C5B4000800000000F7
:1002900000000000C9B400082DE9F84F044601F041
:1002A0002FFC002C00F035812168DFF890B604F1B6
:1002B0003405DFF88C66DFF88C76DFF88C86DFF8A3
:1002C0008C96DFF88CA6594518BF51452AD0494570
:1002D00018BF414526D0B94218BFB14222D001F023
:1002E00031FA1CBFDFF86C3699421BD001F022FABC
:1002F0001CBFDFF86426914214D000F03CFE1CBF06
:10030000DFF8582691420DD001F008FA1CBFDFF843
:100310005036994206D001F0FDF91CBFDFF84426A3
:1003200091424BD1022300226B7059452A7018BFAD
:1003300051452AD0494518BF414526D0B94218BF7A
:10034000B14222D001F0FEF91CBFDFF80836994215
:100350001BD001F0EFF91CBFDFF8FC25914214D04F
:1003600000F009FE1CBFDFF8F42591420DD001F02A
:10037000D5F91CBFDFF8E835994206D001F0CAF97B
:100380001CBFDFF8E025914248D18E467346DEF867
:100390000010490849001960009023681868C107D7
:1003A00043D501F0ADFB009A801A0628F5D304F17D
:1003B00034002021016203224270AAE0DFF8A80580
:1003C00081421CBFDFF8A425914218D0DFF8A03588
:1003D00099421CBFDFF89C05814210D0DFF89825B8
:1003E00091421CBFDFF89435994208D0DFF89005A0
:1003F00081421CBFDFF80029914240F08680022133
:1004000000206970287023681B68A06840286FF37B
:10041000101340F0808043F0100380E00B461A4632
:100420001968490849001160B6E7D3F800C0A1680F
:10043000DFF85005E26800EA0C00084342EA0001D8
:100440002069A26900F0FDF8626A0843216A01434D
:10045000042A03D1E06A0843216B0143DFF8282511
:10046000D2F800C04FEA1C400004B0F1005F11D385
:100470006068A0F12902062A24BFA0F13F02042AE5
:1004800006D3A0F14702022A24BF4F38042801D224
:1004900041F48011196023685A69606AD20840EA01
:1004A000C20204280ED1D4F828E0E06A4EEA020223
:1004B00040B1A16969B9BEF1000F18BFBEF1020FCA
:1004C0001CD011D35A61204601F010FA00F0C8F890
:1004D00042E0B1F5005F0BD1BEF1030FF2D8DFE8C7
:1004E0000EF00F0D0F03EDE7B0F1C07FEAD107E08A
:1004F000BEF1020F04D9BEF10301E3D1C001E1D581
:10050000402101222962012098E040200321286235
:100510006970012093E0802808BF43F48043E168BC
:100520002069A2694FF0140C00F08BF82268084390
:10053000216A43EAD003DFF8540443EA111313603D
:100540002368C318B3FBFCFC4FEA8C00A86220466A
:1005500001F0CCF900F07CF82068584518BF5045F0
:100560004CD0484518BF404548D0B84218BFB042AB
:1005700044D0DFF81C1488421CBFDFF8D823904217
:100580003CD0DFF8103498421CBFDFF8CC1388420F
:1005900034D000F0CFF91CBFDFF8C03398422DD023
:1005A00000F0C4F91CBFDFF8B823904226D000F059
:1005B000B9F91CBFDFF8AC1388421FD0DFF8A823BD
:1005C00090421CBFDFF8A433984217D0DFF8A01385
:1005D00088421CBFDFF89C2390420FD0DFF898338D
:1005E00098421CBFDFF89413884207D0DFF89023AD
:1005F00090421CBFDFF8003798421BD1204601F023
:10060000D1F9A068802804BF00216160E96A2079DF
:100610000860286B6A6B4260606838B1092805D2AF
:10062000204601F009FA00F023F803E00021A96355
:10063000E963296400210122296200206A70BDE873
:10064000F28F08436169084342EA0001E06970479C
:1006500095F82820012102F01F0291404160704767
:1006600095F828203F2102F01F02914081607047D9
:10067000A96B00200860E86B2A6C426070472DE986
:10068000F84F04004FF0000B08BF012005D004F123
:1006900034063078012808BF022000F03481012799
:1006A00037707078012840F027814FF0020C002746
:1006B00086F801C0DFF884A237622068A24FDFF815
:1006C0008C82DFF88C92504518BF48452AD04045AF
:1006D00018BFB84226D09B4DA8421CBF984DA842D7
:1006E00020D0AB4DA8421CBF9A4DA8421AD0A94DAC
:1006F000A8421CBF984DA84214D0DFF81056A8425B
:100700001CBF964DA8420DD0DFF80456A8421CBF6E
:10071000934DA84206D0DFF8FC55A8421CBF914D6E
:10072000A84208D120680068D4F800C04008400002
:10073000CCF8000009E02568D5F800E04FEA5E003B
:100740004FEA400E2846C0F800E0204601F002F8CB
:100750002068504518BF48452AD0404518BFB842C8
:1007600026D0784988421CBF754A904220D0884BD9
:1007700098421CBF774988421AD0864A90421CBFD3
:10078000754B984214D0DFF8841588421CBF734A19
:1007900090420DD0DFF8783598421CBF70498842EE
:1007A00006D0DFF8702590421CBF6E4B98420DD1E9
:1007B00021680B200A6860F344020B461A60F06857
:1007C00090B12068016841F008010CE02168052023
:1007D0000A6860F343020B461A60F06820B1206893
:1007E000016841F004010160206800F087FADFF839
:1007F00050C1DFF850E1504518BF48453ED0404554
:1008000018BFB8423AD0704518BF604536D09842FC
:1008100018BF904232D088421CBF4F4DA8422DD005
:10082000DFF8E854A8421CBF4C4DA84226D0DFF8A0
:10083000E054A8421CBF4A4DA8421FD0DFF8D45450
:10084000A8421CBF474DA84218D0474DA8421CBF24
:10085000464DA84212D0464DA8421CBF454DA84265
:100860000CD0454DA8421CBF444DA84206D0444D73
:10087000A8421CBFDFF88054A8420FD1F06A056877
:10088000ED0303D5056845F480750560B06B28B1AC
:1008900005462E46286840F4807030602068504538
:1008A00018BF484522D0404518BFB8421ED07045F9
:1008B00018BF60451AD0984218BF904216D088429F
:1008C0001CBF2549884211D000F034F81CBF234BCF
:1008D00098420BD000F02AF81CBF214A904205D064
:1008E00000F020F81CBF1F49884202D100F00DF82B
:1008F00008E000F010F805E04FF40063336286F87A
:1009000000B0BB465846BDE8F28F0268034642F08D
:1009100001021A60704701460A46086840F001006B
:1009200010607047DFF8EC3398427047DFF8E0134F
:1009300088427047DFF8D42390427047100002408D
:10094000880002407000024058000240400002400F
:1009500028000240B8000240280402405804024027
:1009600088040240B8040240085402581C5402583B
:100970003054025844540258585402586C54025887
:10098000805402583F8010FE0010005CF8ABFDA7B9
:10099000A0000240100402402DE9F84F044601F087
:1009A000AFF8002C009008D004F1340041780229FF
:1009B00004D08022002302620370E6E02568DFF89D
:1009C000C06500F09BF9DFF8BC95DFF8BCB5DFF837
:1009D000BCC5DFF8BCE5DFF8BC85B54218BF4545AE
:1009E00026D0754518BF654522D05D4518BF4D45D9
:1009F0001ED09D4218BF95421AD08D421CBFDFF811
:100A00009875BD4214D0C14FBD421CBFDFF88C7534
:100A1000BD420DD0BE4FBD421CBFDFF88475BD4244
:100A200006D0BC4FBD421CBFDFF87875BD420CD16B
:100A30002D68276825F01E053D602568D5F814A0AF
:100A40002AF0800AC5F814A006E02F46BA463D6891
:100A500025F00E05CAF80050D4F800A02568B2456C
:100A600018BFC24546D0F24518BFE24542D0DA452C
:100A700018BFCA453ED09A4518BF92453AD08A451C
:100A80001CBFDFF81475BA4534D0A04FBA451CBF5F
:100A9000DFF80875BA452DD09D4FBA451CBFDFF869
:100AA0000075BA4526D09B4FBA451CBFDFF8F474D9
:100AB000BA451FD0DFF8F074BA451CBFDFF8EC74FC
:100AC000BA4517D0DFF8E874BA451CBFDFF8E47404
:100AD000BA450FD0DFF8E074BA451CBFDFF8DC740C
:100AE000BA4507D0DFF8D874BA451CBFDFF87C746C
:100AF000BA4506D1C06AD0F800A02AF4807AC0F8BE
:100B000000A02068B04218BF404526D0704518BFED
:100B1000604522D0584518BF48451ED0984218BF9E
:100B200090421AD088421CBFDFF86C14884214D05F
:100B3000FFF700FF1CBFDFF8643498420DD0FFF7C9
:100B4000F5FE1CBFDFF85824904206D0FFF7EAFEFE
:100B50001CBFDFF85014884219D181464A46D9F8A3
:100B60000000400840001060009E2868C10715D5AD
:100B700000F0C6FF801B0628F7D304F134002021C3
:100B8000016203234370002404700120B2E0024696
:100B900011461068400840000860E5E72668C64630
:100BA000D946DFF8DC8304F13401DFF860A1DFF817
:100BB0001404DFF81424DFF81434DFF8C853DFF826
:100BC000CCB3DFF8CCC3464518BF764525D0664583
:100BD00018BF5E4521D04E4518BFAE421DD09E4283
:100BE00018BF964219D086421CBFDFF8AC73BE42D4
:100BF00013D056451CBFDFF8A473BE420DD0444F3E
:100C0000BE421CBFDFF89873BE4206D0414FBE42C1
:100C10001CBFDFF89073BE4208D191F828703F26C0
:100C200007F01F07BE404F6ABE6007E091F82870CA
:100C3000012607F01F07BE404F6A7E6024684445C6
:100C400018BF744544D0644518BF5C4540D04C453E
:100C500018BFAC423CD09C4218BF944238D084426A
:100C60001CBFDFF83403844232D054451CBFDFF888
:100C70002C2394422CD0264B9C421CBFDFF820032F
:100C8000844225D0234A94421CBFDFF818339C428B
:100C90001ED0DFF8140384421CBFDFF810239442F7
:100CA00016D0DFF80C339C421CBFDFF808038442E7
:100CB0000ED0DFF8042394421CBFDFF800339C42BF
:100CC00006D0DFF8FC0284421CBFA84A94420CD133
:100CD0000C6B4B6B6360886B38B103461A6822F467
:100CE00080720260CA6B0B6C536001200023487055
:100CF00000200B70BDE8F28F94540258DFF8C41244
:100D0000DFF8C422DFF8C43270470000400402401C
:100D100070040240A00402402DE9F84F30B100F108
:100D200034025178022903D080201062012013E19F
:100D30000168DFF84CA2DFF86032DFF88842DFF8A4
:100D4000885200F00BF9DFF844E2DFF84482DFF864
:100D50004492514518BF494527D0414518BF7145B8
:100D600023D0614518BF59451FD0B14218BFA942D1
:100D70001BD0A14218BF994217D0DFF85472B94274
:100D80001CBFDFF81872B9420FD0DFF84872B942C1
:100D90001CBFDFF80C72B94207D0DFF83C72B942D1
:100DA0001CBFDFF80072B94233D104275145577098
:100DB00018BF494526D0414518BF714522D061452D
:100DC00018BF59451ED0B14218BFA9421AD0A1423E
:100DD00018BF994216D0DFF8F82191421CBFDFF806
:100DE000BC3199420ED0DFF8EC41A1421CBFDFF8C4
:100DF000B021914206D000F0BBF81CBFDFF8A4413F
:100E0000A14230D10A46084615686D086D0005609C
:100E1000A1E00968076821F00E01396001685145B9
:100E200018BF494526D0414518BF714522D06145BC
:100E300018BF59451ED0B14218BFA9421AD0A142CD
:100E400018BF994216D0DFF88871B9421CBFDFF88D
:100E50004C71B9420ED0DFF87C71B9421CBFDFF88B
:100E60004071B94206E00A46084613685B085B0019
:100E7000036070E009680768490849003960016843
:100E8000514518BF494545D0414518BF714541D02E
:100E9000614518BF59453DD0B14218BFA94239D06C
:100EA000A14218BF994235D000F065F81CBFDFF8A9
:100EB000EC40A1422ED0DFF81C51A9421CBFDFF844
:100EC000E030994226D0DFF81041A1421CBFDFF884
:100ED000D450A9421ED0DFF8D03099421CBFDFF8B1
:100EE000CC40A14216D0DFF8C850A9421CBFDFF8A1
:100EF000C43099420ED0DFF8C040A1421CBFDFF8D9
:100F0000BC50A94206D0DFF8B83099421CBF174C3C
:100F1000A14219D1D16A0B6823F480730B6092F857
:100F20002840536A012104F01F04A1405960156B49
:100F3000546B6C60916B39B10C46236823F4807359
:100F40000B60D36B146C5C60012100245170D1697B
:100F5000147001B188470020BDE8F28FDFF86C60A3
:100F6000DFF820B0DFF820C070470000945402582A
:100F7000194B99427047164B994270470000000088
:100F800010000240880002407000024058000240F9
:100F90004000024028000240280402405804024059
:100FA00088040240B8040240085402581C540258F5
:100FB0003054025844540258585402586C54025841
:100FC0008054025810040240B8000240A0000240C1
:100FD0004004024070040240A00402402DE9FE4F8C
:100FE0000021DFF8005901912A684FF41653044696
:100FF00004F13405DFF8F0B8B2FBF3F30293686A4A
:10100000009008220123DFF878790146DFF874891F
:101010000E680168D4F800C0DFF86C99DFF86CA99D
:10102000DC4518BFD44531D0CC4518BFC4452DD0C0
:10103000BC451CBFDFF858E9F44527D0DFF858EA73
:10104000F4451CBFDFF84CE9F4451FD0DFF84CEA4B
:10105000F4451CBFDFF840E9F44517D0DFF840EA5B
:10106000F4451CBFDFF834E9F4450FD0DFF834EA6B
:10107000F4451CBFDFF828E9F44507D0DFF828EA7B
:10108000F4451CBFDFF824EAF44541D100F03DFBF4
:1010900002FA00F0064200F09580DC4518BFD44506
:1010A00031D0CC4518BFC4452DD0BC451CBFDFF89E
:1010B000E0188C4527D0DFF8E00984451CBFDFF835
:1010C000D40884451FD0DFF8D4198C451CBFDFF845
:1010D000C808844517D0DFF8C80984451CBFDFF86D
:1010E000BC188C450FD0DFF8BC0984451CBFDFF865
:1010F000B008844507D0DFF8B0198C451CBFDFF875
:10110000AC0984454AD1DCF8000000F0040049E055
:10111000DFF80869B4451CBFDFF80469B44518D08E
:10112000DFF80069B4451CBFDFF8FC68B44510D097
:10113000DFF8F868B4451CBFDFF8F468B44508D0A0
:10114000DFF8F068B4451CBFDFF80066B44540F036
:10115000D682DCF8006095F828C04FF0040E0CF041
:101160001F0C0EFA0CFE11EA0E0FCDF800E000F095
:1011700040825FEA467E40F13C8200994160300443
:1011800040F1ED81F10300F12C826969002900F042
:10119000B682204603B0BDE8F04F084760460068BD
:1011A00000F0080070B1DCF80000614620F0040097
:1011B000086000F0AAFA824000988260296A41F033
:1011C0000101296200F0A1FA26FA00F1C9073DD514
:1011D0002168594518BF51452ED0494518BF414592
:1011E0002AD0B9421CBFDFF8A827914224D000F0D2
:1011F000A9FA1CBFDFF89C2791421DD000F09AFA93
:101200001CBFDFF89427914216D0DFF89428914252
:101210001CBFDFF8882791420ED000F07FFA1CBF78
:10122000DFF87C27914207D000F074FA1CBFDFF88A
:101230007C28914240F0938049690A0606D5834094
:1012400000988360296A41F00201296295F828100C
:10125000042000F056FA06423FD02168594518BFD5
:1012600051452FD0494518BF41452BD0B9421CBF2D
:10127000DFF81C27914225D0DFF81C3899421CBFAB
:10128000DFF8102791421DD000F054FA1CBFDFF8A0
:101290000837994216D0DFF8082891421CBFDFF8C2
:1012A000FC2691420ED0DFF8FC3799421CBFDFF8D4
:1012B000F026914206D000F02DFA1CBFDFF8EC3783
:1012C00099424ED1D1F800C05FEA8C7205D50099E1
:1012D0008860286A40F00400286295F828001021F0
:1012E00000F01F0081400E425CD02068584518BFB6
:1012F000504530D0484518BF40452CD0B8421CBF9F
:10130000DFF88C26904226D0DFF88C3798421CBF3D
:10131000DFF8802690421ED0DFF8802790421CBF65
:10132000DFF87436984216D0FFF704FB1CBFDFF8D5
:101330006C2690420FD0DFF86C3798421CBFDFF864
:101340006026904207D0DFF8602790421CBFDFF88C
:101350005C37984209D1006800F0080008E00A688C
:1013600074E70B46D3F800C0B7E7006800F004004C
:10137000C0B100988160206801684A0307D5006801
:1013800001030BD5696969B1204688470AE0016805
:10139000CA0503D4036823F008030360E96809B1B0
:1013A0002046884795F82800202100F01F00814042
:1013B0000E423FD02068584518BF504531D04845AF
:1013C00018BF40452DD0B8421CBFDFF8C42590425D
:1013D00027D0DFF8C43698421CBFDFF8B865B042AA
:1013E0001FD0DFF8B82690421CBFDFF8AC3598421A
:1013F00017D0DFF8AC66B0421CBFDFF8A0259042E2
:101400000FD0DFF8A03698421CBFDFF89465B042D9
:1014100007D0DFF8942690421CBFDFF89036984240
:1014200003D1006800F0100003E00246106800F0ED
:101430000200002846D0009881602068697804295D
:1014400026D1026822F0160202602068416921F06C
:1014500080014161E868002804BF6969002904D05F
:101460002068026822F00802026095F82810009AAD
:101470003F20002300F045F9906001206870E96981
:101480002B70002920D0204603B0BDE8F04F08475C
:1014900001684A0307D5006801030FD4296989B19F
:1014A000204688470EE00168CA0507D4036800217A
:1014B00023F010030360012068702970A96809B146
:1014C00020468847286A002800F01981296AC80741
:1014D00044D504226A702068584518BF504525D06D
:1014E000484518BF404521D0B8421CBFDFF8A014C2
:1014F00088421BD000F022F91CBFDFF898349842D4
:1015000014D0DFF8981588421CBFDFF88C24904275
:101510000CD000F00BF91CBFDFF88014884205D016
:1015200000F000F91CBFDFF878349842236818688F
:1015300040084000194608600298019A521C9042E7
:101540000192216802D30A68D307F6D40868C1075C
:101550004CBF032201226A7000202870C8E0B00648
:101560003FD42068584518BF50452ED0484518BF75
:1015700040452AD0B8421CBFDFF81414884224D05A
:1015800000F0DCF81CBFDFF80C3498421DD0DFF807
:101590000C1588421CBFDFF80024904215D000F0E3
:1015A000C5F81CBFDFF8F41388420ED000F0BAF87B
:1015B0001CBFDFF8EC33984207D0DFF8EC14884208
:1015C0001CBFDFF8E824904206D10346194618688C
:1015D00020F00800086004E00646326822F00402A9
:1015E0000260E968002918D0204603B0BDE8F04F3A
:1015F00008474FF0020E0EFA0CFE11EA0E0FCDF85E
:1016000000E05DD05FEA867E5AD5009941603004E3
:1016100009D5F1034DD42969002970D0204603B0C3
:10162000BDE8F04F0847B00643D42068584518BFBE
:1016300050452ED0484518BF40452AD0B8421CBF5F
:10164000DFF84C13884224D000F078F81CBFDFF894
:10165000443398421DD0DFF8441488421CBFDFF8A1
:101660003823904215D000F061F81CBFDFF82C132E
:1016700088420ED000F056F81CBFDFF824339842A1
:1016800007D0DFF8241488421CBFDFF820249042E2
:1016900006D103461946186820F01400086004E0DB
:1016A0000646326822F00A020260012100226970B7
:1016B0002A70A96819B3204603B0BDE8F04F084767
:1016C00002FA0CF211421AD0360718D52768396889
:1016D00021F00E013A46116095F8286001210022A0
:1016E00006F01F06B34043600120286269702A702B
:1016F000A96921B1204603B0BDE8F04F0847BDE815
:10170000F78F01F01F018840704795F8280000F01E
:101710001F007047DFF8902391427047DFF8842361
:1017200091427047DFF87C2390427047DFF87033B6
:1017300098427047DFF8642391427047DFF85823DE
:1017400090427047DFF850239142704794540258FA
:10175000406D70472DE9F84F0446DFF88CA1A56D68
:10176000DFF82CB200952668DFF814C2DFF814E227
:10177000DFF81482DFF81492564518BF4E4543D067
:10178000464518BF76453FD0664518BF5E453BD0FD
:10179000DFF8040386421CBF7E4FBE4234D0DFF820
:1017A000FC0286421CBF7C4886422DD0DFF8F072D6
:1017B000BE421CBF7948864226D0DFF8E802864246
:1017C0001CBF774FBE421FD0DFF8DC0286421CBF31
:1017D000DFF8D802864217D0904FBE421CBF904817
:1017E000864211D08F4886421CBF8F4FBE420BD01D
:1017F0008E4886421CBF8E48864205D08D48864260
:101800001CBFAB4886425BD1606EA76E4760E06E3E
:1018100010B1206F676F4760564518BF4E4525D001
:10182000464518BF764521D0664518BF5E451DD098
:10183000994886421CBF5748864217D0974886422F
:101840001CBF5548864211D0954886421CBF53485C
:1018500086420BD0934886421CBF5148864205D031
:10186000914886421CBF9148864215D194F85C008D
:10187000DDF800B03F2500F01F008540CBF8085090
:10188000356825F4802535607360A068402825D030
:10189000B160F260BDE8F18F604886421CBF6048CD
:1018A000864210D05F4886421CBF5F4886420AD0FD
:1018B0005E4886421FBF5E4886425E48864202D02E
:1018C0007B488642E6D194F85C70012007F01F0740
:1018D000B84068607360A0684028D9D1B260F160F8
:1018E000D8E70000B00000201000024070B5016889
:1018F000704A91421CBF254B994229D0224CA142EB
:101900001CBF204A914223D01D4B99421CBF204C42
:10191000A1421DD0FFF716FF1CBF1E4B994217D0E6
:101920005E4CA1421CBF1C4A914211D0FFF723FB21
:101930001CBF1A4CA1420BD0FFF7F0FE1CBF184B86
:10194000994205D0584CA1421CBF584EB14211D10A
:1019500001F0FF02890A103A1825B2FBF5F20FF2E6
:10196000981302F0070489021E5D042AC66503D39A
:10197000091D01E0090A09028165084670BD0000E1
:10198000700002405800024040000240280002401F
:1019900088000240B8000240280402405804024077
:1019A00088040240F0B5016801231C4D0A46A94293
:1019B0001CBF1B4EB14211D01A4FB9421CBF1A4D69
:1019C000A9420BD0194EB1421CBF194FB94205D0E4
:1019D000184DA9421CBF364EB14208D101F0FF0498
:1019E000083C1421344AB4FBF1F434490CE001F012
:1019F000FF043349103C18258A18A92AB4FBF5F4D2
:101A000038BF08342F49304A01EB840104F01F0429
:101A1000A340016642668366F0BD00000854025888
:101A20001C54025830540258445402585854025816
:101A30006C540258805402580179002900D1704733
:101A4000092970B527D20268204B9A421CBF204D4D
:101A5000AA4211D01F4EB2421CBF1F4B9A420BD05C
:101A60001E4DAA421CBF1E4EB24205D01D4B9A42CB
:101A70001CBF0F4DAA4204D11B4A02EB81041B4A32
:101A800003E01B4B1B4A03EB810402670122491E42
:101A90008A40C466426770BDA00002401004024044
:101AA0004004024070040240A0040240B804024016
:101AB00094540258100002408058025800580258AE
:101AC000F0FBFDBF000802408008024008540258A5
:101AD0001C54025830540258445402585854025866
:101AE0006C54025880540258FC580258405902580D
:101AF000FC080240400902400006101600061016BD
:101B000001484068704700BFA400002038B50400B9
:101B100001D1012032BD04F18405686818B900F0D4
:101B200026F800F029F800F019F808B100F036F8AE
:101B300000F031F8012806D0206800F005F800F028
:101B400023F800F08EBA32BD416821F49041416023
:101B50002068826822F02A02826070472420686030
:101B600020680268520852000260A06A7047002193
:101B70002046297000F078BA286C10B9DFF8582197
:101B80002A64296C204608472068016841F0010159
:101B9000016020467047204600F098BA204600F0C9
:101BA00099BC2DE9F843064606F15407786B0C46BC
:101BB00015469946202841D10CB1280001D10120B9
:101BC0003DE000202121F8637963FFF799FF3D8014
:101BD0007D80B268B2F5805F04BF316900291ABF09
:101BE00021464FF00008A04605460C4612E00022B0
:101BF0008021304600F034FDE0B93068002C12BF7F
:101C000014F8011B38F8021BC1F3080181627A88BD
:101C1000511E79807888CDF800902B460028E6D1B7
:101C200000224021304600F01BFD18B920207863C7
:101C3000002004E020210320796300E00220BDE8B9
:101C4000F28370B50346D3F88C0020280AD109B17D
:101C5000100001D1012070BD00F006F8BDE8704011
:101C600000F047BD022070BD0020DFF84C44D8666C
:101C70001868A0420CD04068060209D51C6854E8D8
:101C8000004F1D6844F0806445E800400028F5D10D
:101C9000184670472022816941F008018161704730
:101CA000236803F1080555E8001F03F1080221F03D
:101CB000400142E8001000287047206850E8001FEB
:101CC0007047206881684A06704700F1080242E8C0
:101CD0000010002870470000DB6600082DE9F8437B
:101CE000044640F60F0C226804F15C05D6691046E4
:101CF0000768936816EA0C0F06F0200107F0200031
:101D00000DD1002914D010B9D80040F19580A969EF
:101D1000002900F094812046BDE8F4430847DFF82D
:101D20004CC713EA0C0F04BFDFF844E717EA0E0FA5
:101D300000F082805FEAC67848BF5FEAC75E07D5D9
:101D40004FF00109C2F820906A6B42F001026A6309
:101D5000B2070CD5DA070AD5D4F800E00222CEF893
:101D60002020D5F8348048F00408C5F83480720784
:101D70000CD5DA070AD5D4F800E00422CEF82020EA
:101D8000D5F8348048F00208C5F8348032070FD502
:101D9000002808BF13EA0C0F0AD0D4F800C00822AC
:101DA000CCF82020D5F834E04EF0080EC5F834E029
:101DB000320509D57F0107D522684FF40066166207
:101DC0006F6B47F020076F636A6B002A33D031B125
:101DD00008B9D80003D5A96909B120468847686BBE
:101DE00021688A68530602D410F0280F1ED02046BE
:101DF00000F008FDFFF765FF13D5FFF751FFFCD199
:101E000004F15C05686A60B1DFF868160165686A0C
:101E1000FEF782FF00280ED0686A016DBDE8F4432A
:101E200008472046AA6CBDE8F2431047A96C20463B
:101E3000884700236B6302E12869012840F0BD80D8
:101E4000F10600D5F80640F1B8801023136221682E
:101E50008868420674D56A6ADFF81C1610688842E2
:101E60001CBFDFF8183698422ED0DFF81466B04257
:101E70001CBFDFF81016884226D0DFF80C369842D7
:101E80001CBFDFF80866B0421ED0DFF80416884297
:101E90001CBFDFF80036984216D0DFF8FC65B04270
:101EA0001CBFDFF8F81588420ED0DFF8F4359842F1
:101EB0001CBFDFF80862B04206D0DFF80412884287
:101EC0001CBFDFF8003298424068298880B20028A1
:101ED00028D0884226DA6880D069B0F5807F18D093
:101EE00000F00CFEFCD100F0A3FBFCD100F0A9F83F
:101EF000FCD12020002128632961236853E8001FBA
:101F000021F010011A46FFF7E2FEF6D1686AFEF7EB
:101F100043FD02216961298868886A6E091A89B2BD
:101F2000204647E0884204BFD369B3F5807F40F084
:101F300086800220686120466B6EBDE8F443184736
:101F400029886A886888891A00281CBF88B20028F6
:101F500075D02246136853E8003F146823F4907349
:101F600044E800300028F5D11568DFF8E80805F1ED
:101F7000080454E8004F05F10803044043E800401A
:101F80000028F1D102F15C002023036300240461E6
:101F90008461106850E8003F23F01003044644E8D1
:101FA00000300028F5D102F15C0302205861104690
:101FB00089B25A6EBDE8F8431047F00209D55902BC
:101FC00007D54FF4801320461362AA6DBDE8F24393
:101FD0001047300609D5390601D4180205D5E9693C
:101FE00069B32046BDE8F4430847700615D5790665
:101FF00013D5236853E8001F21F040011A46FFF76C
:1020000066FEF6D104F15C012020C8620022CA619C
:102010002046C96BBDE8F4430847300206D5790075
:1020200004D520462A6EBDE8F2431047F00148BFB0
:10203000002F04D52046EA6DBDE8F2431047BDE805
:10204000F183216801F1080353E8001F206821F0A3
:10205000400100F1080242E80010002870472021EA
:102060005160BDE8324099E210B5DFF8F017DFF8B3
:10207000F02740F8941FDFF8EC374260DFF8E817EC
:10208000DFF8E82783600161DFF8E4374261DFF8B9
:10209000E417DFF8E4278361C161DFF8E0470262FB
:1020A000DFF8DC37DFF8DC17074AC460436281627F
:1020B000C26210BD00000000000C0058580402402D
:1020C0007004024088040240BFAE00082DE9F041D0
:1020D00086B004462168DFF8B00700250E68A268C4
:1020E0002369064060691643E2691E4306431643AE
:1020F000DFF864270E604B68E06823F44053034325
:1021000091424B60A6691CBF206A06438F68DFF8C6
:102110007C371F403E438E60CE6A606ADFF870777E
:10212000DFF870373609B94240EA0616CE620FF280
:10213000743645D1586D10F0380000F09A800828A8
:1021400000F0D080102848D0182857D0202800F060
:102150006780282800F077804FF0800C9142DFF8EC
:102160003807DFF838E74FF4004840F0E680BCF16C
:10217000040F00F0BA80BCF1080F00F0BB80BCF186
:10218000100F00F0BC80BCF1200F00F0C080BCF14B
:10219000400F00F0BE805BE101F084F9002800F000
:1021A0005881626A36F81260626802EB4201B0FB45
:1021B000F6F68E4203D31303B34280F0AC8047E1BE
:1021C000DFF8DC76B9420BD100F07FF9C4D8DFE844
:1021D00000F075890415273ABEE74FF0080CBDE7FB
:1021E000DFF8C076B9420CD100F06FF9B4D8DFE85F
:1021F00000F065790405172AAEE7EEE74FF0100C02
:10220000ACE7DFF8E077B9420DD100F05EF9A3D872
:10221000DFE800F05468050406199DE7EEE7DCE707
:102220004FF0200C9AE7DFF8C077B9420ED100F0EA
:102230004CF9F2D8DFE800F04256060504078BE7B8
:10224000EEE7DBE7C9E74FF0400C87E7DFF89C7764
:10225000B94211D1586D10F038000AD0082841D089
:102260001028BAD01828C9D02028D9D02828EAD0D8
:1022700072E74FF0010C71E7DFF87477B9420CD1C7
:1022800000F023F9F4D8DFE800F0192D0706050463
:1022900062E7D8E7C4E7B1E79FE7DFF83C78B942E7
:1022A0000ED100F012F9F3D8DFE800F0081C0706A1
:1022B000050451E7C7E7B3E7A0E78EE7AC464DE773
:1022C0009142F6D1986D00F00700052804D8DFE8A8
:1022D00000F00809070605043EE7B4E7A0E78DE72C
:1022E0007BE759E74FF0040C38E703A801F0EAF860
:1022F000049853E7684601F011F901984EE7196810
:102300008A0605D51F68C7F3C101C84046E7704675
:1023100047E7404645E75008002110EB062051EB07
:102320001661002301F0A0FAA0F54076DFF8C81787
:102330008E421DD22768F8608BE0E1694FF6F07796
:10234000B1F5004F44D1BCF1000F12D0BCF1010F28
:1023500025D0BCF1040F25D0BCF1080F27D0BCF16B
:10236000100F29D0BCF1200F2ED0BCF1400F2DD082
:102370006EE001F0B4FC00286BD000F09FF84E082E
:1023800006EB4006B6FBF1F0A0F11001B9425FD2B6
:102390000740C0F3420007432068C76059E001F0DE
:1023A000A6FCE8E703A801F08DF80498E3E7684687
:1023B00001F0B4F80198DEE719688A06DDD51968DE
:1023C000C1F3C101C840D6E77046D6E74046D4E71E
:1023D000BCF1000F12D0BCF1010F20D0BCF1040FF2
:1023E00020D0BCF1080F22D0BCF1100F24D0BCF1DA
:1023F000200F29D0BCF1400F28D029E001F06FFC5C
:1024000038B300F05BF800EB5100B0FBF1F0A0F145
:102410001001B9421CD2226880B2D06019E001F0EC
:1024200066FCEDE703A801F04DF80498E8E768467C
:1024300001F074F80198E3E719688A06E1D5196894
:10244000C1F3C101C840DBE77046DAE74046D8E790
:10245000012504F168000121002341800180C3604F
:102460000361284606B0BDE8F081000001000010BD
:1024700020010004C9280008100002402800024082
:1024800040000240580002407000024088000240B4
:10249000A0000240B800024010040240280402409C
:1024A00040040240010002000400060008000A0087
:1024B0000C0010002000400080000001626A61688A
:1024C00036F81230B0FBF3F07047586D00F007009B
:1024D0000528704710B590F828100A0706D502683D
:1024E0005368816B23F400430B43536090F828201A
:1024F000D10706D502685368C16A23F400330B4341
:10250000536090F82820910706D502685368016B44
:1025100023F480330B43536090F82820510706D5ED
:1025200002685368416B23F480230B43536090F897
:102530002820D10606D502689368C16B23F4805326
:102540000B43936090F82820910606D502689368A3
:10255000016C23F400530B43936090F8282051063C
:1025600010D502685368416C23F480130B43536009
:10257000446CB4F5801F05D15368816C23F4C0030B
:102580000B43536090F82820110606D501684A686D
:10259000C06C22F4002202434A6010BDF8B5044624
:1025A00004F1840500216FF07E47E960FFF7A8FA87
:1025B0000646206801680A0715D5009733460022B1
:1025C0004FF40011204600F04BF860B1FFF775FBA7
:1025D00021F080010246FFF77AFBF7D104F1840075
:1025E0002021416016E0206801684A0716D500974F
:1025F000334600224FF48001204600F031F868B1E4
:1026000000F024F8FCD100F013F8FCD104F18400B0
:1026100020218160002202700320F2BD20202021B1
:1026200068600022A9600020E26620672870F2BD81
:10263000216801F1080353E8001F20684908490098
:1026400000F1080242E8001000287047206850E8B6
:10265000001F21F49071024642E8001000287047E4
:102660002DE9F04105460E4690461F46069C286817
:10267000C1693140B1420CBF01200020404536D134
:1026800014F1010FF3D0FFF73BFAC01B844200D3D3
:1026900014B90320BDE8F081286801684A07E6D52F
:1026A000802E18BF402EE2D0C1690A0703D4C16949
:1026B0000A05DCD50DE02B6808201862284600F0DA
:1026C000A1F805F184000821C160002202700120F8
:1026D000E0E729684FF400600862284600F092F8AD
:1026E00005F184002022C26000210170D1E70020A2
:1026F000D0E770B503460020996503F15C010A80BC
:10270000FF244A8088619868B0F5805F04D1186919
:1027100088B940F2FF140EE010B9186958B104E00E
:10272000B0F1805F06D1186908B97F2403E03F202B
:10273000888001E000248C800020222548630D63FE
:10274000196801F1080656E8001F186841F00101F8
:1027500000F1080444E800100028F1D103F15C0105
:102760008868B0F1005F26D18C89A24223D39A6891
:10277000B2F5805F04BF1869002803D10FF29132CF
:102780008A610BE00FF2B1248C61186930B100F05E
:1027900034F841F48071FFF79AFAF8D1196801F121
:1027A000080454E8001F186841F08051FFF78DFAC3
:1027B000F4D1002070BD9A68B2F5805F04BF18693B
:1027C00000280CD10FF279148C61186850E8001FB2
:1027D00041F020010246FFF77AFAF6D1E9E70FF25D
:1027E000F9048C6118690028EFD000F006F841F474
:1027F0009071FFF76CFAF8D1DBE7196851E8001F18
:102800001A68704710B500F04FF8FCD100F014F8CA
:10281000FCD1C26E012A08D1016851E8002F22F0D4
:1028200010020B4600F04CF8F6D120210022C0F82F
:102830008C10C266426710BD0468064904F10803A3
:1028400053E8003F04F108020B4042E80031002940
:1028500070470000FEFFFFEF000C0058F750000823
:10286000E7500008AB670008BF67000873850008E1
:10287000AF8A000837AB0008D3AE0008C167000874
:102880001FAF00087FB10008F369FFCFFFF4FF110D
:1028900000100140004402580090D00300093D00A0
:1028A0000044004000480040016851E8002F22F435
:1028B00090720B4643E800210029704722F0800205
:1028C00043E8002100297047806B0022A0F85E20B9
:1028D000D0F8A4100847000070B500F05AF81FD1D6
:1028E0004B6A9188846D0B402370836D5D1C00F0F2
:1028F00056F819D100F07EF8FCD100F085F8FCD133
:1029000000F054F80BD10023136100F00EF8FCD155
:102910000168CB69DC0644BF10250D6286E081E0CA
:10292000886940F00800886170BD016851E8003F87
:1029300023F010030C4644E80031002970470000E2
:1029400070B500F026F81FD14B6A9188846D0B405A
:102950002380836D9D1C00F022F819D100F04AF805
:10296000FCD100F051F8FCD100F020F80BD100238D
:102970001361FFF7DAFFFCD10168CB69DC0644BFC5
:1029800010250D6252E04DE0886940F00800886132
:1029900070BD00F15C020168136B222B70478565E6
:1029A0005488661E568051880029704700F15C02E9
:1029B0002021116300249461002555610168B24B08
:1029C00099420CD049680D0209D5036853E8003FCD
:1029D000046823F0806344E800310029F5D11169CF
:1029E00001297047004C0040005000400014014095
:1029F00000780040026852E8002F036822F49072C9
:102A000043E8002100297047026802F1080454E8F5
:102A1000002F01685208520001F1080343E8002129
:102A200000297047536CBDE8704018471188526EFA
:102A3000BDE87040104700002DE9F84300F0FCF8B5
:102A400046D1A889002835D0B90633D500F0EEF874
:102A50000870A06D421C00F0ABF812D0F90748BF17
:102A60005FEAC85200F0ADF803D5F20701D500F0D7
:102A7000BEF800F0AFF820B1A96C204688470022CC
:102A80006A6368880028DFD100F038F8FCD100F0D4
:102A900025F8FCD100F0DEF809D100F0FDF844BFC4
:102AA0001023036229886A6E2046904702E0696C11
:102AB00020468847688868B1A98988420ADA00F008
:102AC0009EF8FCD17148A86100F0A6F8FCD101E0A5
:102AD000FFF7E1F8BDE8F183007C004023686C4813
:102AE00003F1080252E8002F03F10801024041E817
:102AF000002000287047000000FD0F00216851E809
:102B0000001F226821F4807142E8001000287047FD
:102B10002DE9F84300F090F846D1A889002835D077
:102B2000B90633D500F082F80880A06D821C00F051
:102B30003FF812D0F90748BF5FEAC85200F041F8E9
:102B400003D5F20701D500F052F800F043F820B1A8
:102B5000A96C2046884700226A6368880028DFD174
:102B6000FFF7CCFFFCD1FFF7B9FFFCD100F072F802
:102B700009D100F091F844BF1023036229886A6EDE
:102B80002046904702E0696C20468847688868B113
:102B9000A98988420ADA00F032F8FCD13D48A861E0
:102BA00000F03AF8FCD101E0FFF775F8BDE8F183D9
:102BB000A26569884B1E6B802068C76917F0070FF4
:102BC000704705D501230362686B40F0010068631C
:102BD000B9077047790708D5F20706D521680420A0
:102BE00008626A6B42F002026A63686B7047216890
:102BF000022008626A6B42F004026A63704723682D
:102C000003F1080959E8001F03F1080221F080517F
:102C100042E8001000287047216851E8001F226830
:102C200041F0200142E80010002870472068406A07
:102C3000A16D09EA00007047044604F15C052068B4
:102C4000B5F80490C7690246D2F800808668296BFF
:102C5000222970472021002229630B49A8616A615B
:102C6000206888420CD04068030209D5216851E8E9
:102C7000001F226821F0806142E800100028F5D191
:102C80002869012870470000000C0058D928000866
:102C9000FEFFFFEF4129000800212961206850E86C
:102CA000001F21F01001024642E800100028F5D173
:102CB0002068C169CA0670472DE9F047044600251F
:102CC000D4E900010201A846DFF8D47722D5A36E2B
:102CD0004BB1B3F5801F0BD0B3F5001F15D0B3F582
:102CE000401F09D014E0FA6942F40032FA6105E0AD
:102CF000022100F0D0FB054628000AD1396CA06EF5
:102D000021F440110143396404E000F0BEFBF2E716
:102D10000125A846D4E90001C3051CD5A26D042AEB
:102D200017D8DFE802F0030E1205050000F0A3FB40
:102D300028000FD1396CA06DC90840EAC10139647F
:102D400009E000F0A7FB0546F2E7002100F099FB3F
:102D5000F9E70125A846D4E90001820520D5E36DF5
:102D60004BB1402B12D0802B14D0C02B18BFB3F521
:102D7000807F02D012E000F07EFB28000FD1396C7A
:102D8000E06D21F4E0710143396409E000F082FB59
:102D90000546F2E7002100F074FBF9E70125A8469B
:102DA000D4E90001420504F1840623D5736A63B1B6
:102DB000B3F5001F14D0B3F5800F15D0B3F5C00FD5
:102DC00018BFB3F5000F02D012E000F054FB28004A
:102DD0000FD1B96C706A21F460010143B96409E054
:102DE00000F058FB0546F2E7002100F04AFBF9E746
:102DF0000125A846D4E90001020523D5B36A63B1D1
:102E0000B3F1807F14D0B3F1007F15D0B3F1407FD0
:102E100018BFB3F1806F02D012E000F02CFB280045
:102E20000FD1B96CB06A21F0E0610143B96409E0E7
:102E300000F030FB0546F2E7002100F022FBF9E745
:102E40000125A846D4E9000182011AD5E36C43B1FB
:102E5000102B04D0202B0DD0302B02D00FE000F02F
:102E60000AFB28000CD1F96BE06C21F03001014322
:102E7000F96306E0022100F00EFB0546F1E70125AB
:102E8000A846D4E90001C20423D5236E63B1B3F58B
:102E9000805F14D0B3F5005F15D0B3F5405F18BF65
:102EA000B3F5804F02D012E000F0E5FA28000FD110
:102EB000396C206E21F4E0410143396409E000F0EF
:102EC000E9FA0546F2E7002100F0DBFAF9E701250F
:102ED000A846D4E90001820422D5636E93B1B3F50C
:102EE000803F0BD0B3F5003F15D0B3F5403F1CBF7A
:102EF000B3F5802FB3F5A02F04D00FE0012100F02F
:102F0000CAFA054628000AD1396C606E21F4E02126
:102F10000143396404E000F0B3FAF2E70125A84662
:102F2000D4E90001420422D5F36A93B1B3F1805F82
:102F30000BD0B3F1005F15D0B3F1405F1CBFB3F10C
:102F4000804FB3F1A04F04D00FE0012100F0A3FAAD
:102F5000054628000AD1B96CF06A21F0E04101432E
:102F6000B96404E000F08CFAF2E70125A846D4E940
:102F7000000102041AD5236F43B1B3F1805F03D07F
:102F8000B3F1005F0BD00FE000F075FA28000CD110
:102F9000396C206F21F040510143396406E0012172
:102FA00000F079FA0546F1E70125A846D4E90001C9
:102FB000C30118D5A26C032A13D8DFE802F004027B
:102FC0000D0400F058FA28000CD1F96BA06C8908A8
:102FD00040EA8101F96306E0022100F05CFA05464F
:102FE000F1E70125A846D4E9000143023FD5DFF807
:102FF0009896D9F8002042F48072C9F80020FEF7B4
:103000007FFD8246D9F80000C10506D4FEF778FDA1
:10301000A0EB0A006528F5D327E0280026D1386EFA
:10302000316B00F4407001F4407188420BD0386E6F
:10303000396E41F4803139663A6E20F4407022F4E2
:1030400080323A663866306BB0F5807F2BD1FEF760
:1030500057FD8146386E820725D4FEF751FDA0EB5F
:10306000090041F289318842F4D30325A846227829
:10307000D10738D5E06F68B1082807D010282DD0C7
:1030800018281CBF2028282804D02AE0012100F09D
:1030900002FA0546280025D1796CE06F21F038014D
:1030A000014379641FE0306B00F44072B2F5407F59
:1030B00009D13968DFF8D42502EA101221F47C51D5
:1030C0001143396003E03B6823F47C533B60386E66
:1030D000316BC1F30B0108433866C8E700F0D0F943
:1030E000D7E70125A84621788A0719D5A06F0528BA
:1030F00014D8DFE800F0070310070707012100F0EC
:10310000CAF9054628000AD1796CA06FC90840EABF
:10311000C101796404E000F0B3F9F2E70125A846A3
:1031200021784A0719D53069052814D8DFE800F05E
:10313000070310070707012100F0ADF90546280035
:103140000AD1B96C3069C90840EAC101B96404E028
:1031500000F096F9F2E70125A84621788A0621D5E4
:10316000F06888B1B0F1805F0BD0B0F1005F14D08F
:10317000B0F1405F1CBFB0F1804FB0F1A04F03D061
:103180000EE000F087F9054628000AD1796CF06856
:1031900021F0E0410143796404E000F076F9F2E7C0
:1031A0000125A84621784A0621D5B06988B1B0F535
:1031B000806F0BD0B0F5006F14D0B0F5406F1CBF1E
:1031C000B0F5805FB0F5A05F03D00EE000F062F9CB
:1031D000054628000AD1B96CB06921F4E0510143D9
:1031E000B96404E000F051F9F2E70125A84621781E
:1031F0000A0621D5F06988B1B0F5005F0BD0B0F5B3
:10320000804F14D0B0F5C04F1CBFB0F5004FB0F5E3
:10321000204F03D00EE000F03DF9054628000AD10A
:10322000B96CF06921F460410143B96404E000F035
:103230002CF9F2E70125A84621780A070ED5306857
:10324000B0F5805F04D100F020F908B14FF001081B
:10325000796C306821F44051014379642278D106B9
:103260000ED57069B0F5807F04D100F00EF908B179
:103270004FF00108B86C726920F440701043B864D4
:10328000D4E90001030319D5326A32B1B2F5803FA7
:103290000FD0B2F5003F03D00EE000F0FBF805467A
:1032A00028000AD1B96C306A21F440310143B96475
:1032B00004E000F0EAF8F2E70125A846D4E90001AD
:1032C00043031BD57268B2F5801F06D0B2F5001F0C
:1032D0000ED0B2F5401F02D00EE000F0CCF828006E
:1032E0000BD1796C706821F440110143796405E0D9
:1032F00000F0C6F80546F2E70125A846D4E900012A
:10330000C30317D5226D1AB1B2F5803F0BD00FE081
:1033100000F0B1F828000CD1F96B206D21F4803158
:103320000143F96306E0022100F0B5F80546F1E734
:103330000125A846D4E90001830004D500F0A5F8D2
:1033400008B14FF00108D4E9000182031CD5D4F87C
:1033500080306BB1B3F5807F06D0B3F5007F18BF26
:10336000B3F5407F04D00DE0FA6942F40032FA610F
:103370002A0008D17B6CD4F8802023F440731343D7
:103380007B6401E00125A846C20205D53B6C626F53
:1033900023F0004313433B64C50005D53B68726BC3
:1033A00023F4804313433B60850205D53B6CE26EFA
:1033B00023F0807313433B64450009D5D7F800C060
:1033C0002CF4004CC7F800C03B68B26B13433B6061
:1033D000002805D5FB6B626D23F040531343FB635C
:1033E000050205D57B6CB26823F4400313437B646C
:1033F00011F0010104D000F04DF8010018BF804623
:10340000D4E9000111F0020305D0012100F043F8D6
:10341000010018BF8046D4E9000111F0040305D073
:10342000022100F038F8010018BF8046D4E90001FD
:1034300011F0080305D0002100F023F8010018BFA7
:103440008046D4E9000111F0100304D000F018F810
:10345000010018BF8046D4E9000111F0200302D01A
:1034600000F013F820B9B8F1000F08BF002000D019
:103470000120BDE8F087F86940F40030F86170473A
:10348000012104F1280000F065B9022104F12800AF
:1034900000F060B9002104F1080000F003B9000059
:1034A0001044025880B500F002FCDFF8B423DFF8C6
:1034B000B4131368C3F30212895C01F01F01C84002
:1034C00002BD000030B500F082F8C2F30015DA6BDF
:1034D000C1F3053100F088F81DD000F07EF802D06D
:1034E000022C06D008E000F0B5F8996B00F04CF81B
:1034F00007E09FED672A01E09FED662A996B00F0D7
:1035000053F8996B00F088F8996B00F076F8996B96
:1035100000F093F801E000F031F82BE030B500F056
:1035200056F8C2F300255A6CC1F3055100F05CF85F
:103530001DD000F052F802D0022C06D008E000F0B6
:1035400089F8196C00F020F807E09FED512A01E09E
:103550009FED502A196C00F027F8196C00F05CF808
:10356000196C00F04AF8196C00F067F801E000F0FF
:1035700005F800BF10EE101A816030BD00229FEDEB
:10358000460A026042607047F7EE001AC1F3080174
:1035900001EE101AB8EE411A31EE000A70EE211A4F
:1035A00020EEA10A70470000DFED3C1AC2EE200AAF
:1035B000C1F3080101EE101AB8EE411A00EE211A0B
:1035C000B7EE000A31EE000A20EE800A7047DFF8FD
:1035D0008C329C6A996ADA6A704714F0030400EE30
:1035E000901AF8EE600A7047C2F3CC0255430029E6
:1035F00000EE105AB8EE400A7047C1F3064100EEE3
:10360000901AF8EE600A70EE810AC0EE200AFCEE15
:10361000E00AC0ED010A7047B7EE001AC1F3462177
:1036200000EE901AF8EE600A70EE810AC0EE200AF1
:10363000FCEEE00AC0ED000A7047C1F3066100EE3F
:10364000901AF8EE600A70EE810A80EE200ABCEE55
:10365000C00A704719689FED111A20EE010A8C0606
:103660000CD51968DFF8F021C1F3C101CA4001EEA1
:10367000102AB8EE411AC1EE200A70479FED082AC1
:10368000C2EE200A7047000000480258CFFFFF003A
:1036900020BCBE4B0024744A00000000000000392A
:1036A0000024744CF8B500F0CFF801D10120F2BD30
:1036B000316821F080613160FEF722FA07463068F8
:1036C000010106D5FEF71CFAC01B0328F7D303201F
:1036D000F2BDB06A296820F47C3040EA013000F085
:1036E00097F8B063F16A686921F0C00100F0A8F8AA
:1036F000A86921F0200100F0A3F821F01001F16287
:10370000F06B00F07FF8F063F06A40F01000F062B8
:103710001CB9F06A40F4002004E0012C04D1F06AE6
:1037200040F48010F06203E0F16A41F40011F162AC
:10373000326842F080623260FEF7E2F90446306897
:10374000010105D4FEF7DCF9001B0328F7D3BEE71F
:103750000020F2BDF8B500F077F801D10120F2BDEC
:10376000316821F080513160FEF7CAF907463068B0
:10377000810006D5FEF7C4F9C01B0328F7D3032048
:10378000F2BDB06A296820F07C7040EA015000F078
:103790003FF83064F16A686921F4406100F050F844
:1037A000A86921F4007100F04BF821F48071F162F6
:1037B000706C00F027F87064F06A40F48070F0627A
:1037C0001CB9F06A40F4800004E0012C04D1F06AD6
:1037D00040F40000F06203E0F16A41F08071F162B0
:1037E000326842F080523260FEF78AF9044630684F
:1037F000810005D4FEF784F9001B0328F7D3BEE748
:103800000020F2BDE9696FF3CF0040EAC1007047C4
:10381000B062A9686868EA68491E4902401EC0F3A0
:103820000800521E01F47E4112040843296902F483
:10383000FE021043491E090601F0FE41084370478D
:103840000143F162F16A70470546044EB06A0C46C6
:1038500000F00300032870470090D0030044025892
:1038600020440258FCAF0008D3BBD9B1B2F5803F69
:103870005BD2022A1ED98C46B1FBF2F102FB11C3C6
:103880001B0443EA1043B3FBF2FC02FB1C3380B27F
:1038900040EA0343B3FBF2F002FB103240EA0C4073
:1038A00000237047022A05D98446B0FBF2F002FBE0
:1038B00010C270474AB105D100F0010249085FEA21
:1038C0003000704700220023704700F03FBA0B0021
:1038D0000200002100207047F7D300220023704728
:1038E000904271EB030CF2D370B5B1FA81F4B3FAE4
:1038F00083F52C1BA340C4F1200532FA05F63343AF
:10390000A2405FF00046E64002E05B085FEA320258
:10391000841A71EB030524BF204629467641F4D36F
:1039200002000B003000002170BD70B5B1FA81F4C7
:10393000B2FA82F5C4F120046419B4F12006DAD396
:10394000B2405FF00044F440002502E052085FEA14
:103950003303C61A71EB020E24BF30467146644130
:103960006D41F3D302000B002000290070BD30B57B
:10397000016884684218416802EB5103C90703D506
:103980004C4401E0491C08D19A4218BF12F9011BAE
:1039900001D10C3030BD12F8015B002904F8015B45
:1039A000F0D4491EF7D5EFE72DE9F0410400884631
:1039B0005AD0DFF86C73386800F00F00404502D22F
:1039C00000F0D0F850D12078DFF85853420706D5E0
:1039D0002069A96901F07001814200F0E2F82078C5
:1039E000020706D56069E96901F07001814200F0C3
:1039F000D1F82078C20606D5A069E96901F4E06132
:103A0000814200F0C0F8207882060AD5E069296A70
:103A100001F07001814204D22A6A22F07002104340
:103A200028622078820706D5E068A96901F00F01B5
:103A3000814200F0A1F82078C20731D5A969A068B9
:103A400021F470610143A9616068022802D12968EC
:103A50008A0308E0032802D129688A0103E00128CB
:103A600003D12968CA0503D42CE02B68590729D54E
:103A70002A69D20840EAC2002861FEF741F80646EA
:103A80002869616800F03800B0EBC10F08D0FEF77C
:103A900037F8801B41F289329042F1D303205FE076
:103AA0002078820706D5E068A96901F00F018842F5
:103AB00000F062F8386800F00F00804504D200F092
:103AC00051F801D001204BE02078420706D520694B
:103AD000A96901F07001884200F063F820780207BC
:103AE00006D56069E96901F07001884200F052F87A
:103AF0002078C20606D5A069E96901F4E061884230
:103B000000F041F8207881060AD5E0692A6A02F0BF
:103B10007002904204D2296A21F0700108432862A1
:103B200000F046F8AA69DFF81012C2F303228B5C9A
:103B3000AC69DFF8F45104F00F04095D03F01F03D2
:103B4000D840DFF8E83101F01F0120FA01F21A60D5
:103B50002860DFF8E0010068BDE8F04100F004B93A
:103B6000BDE8F0813968090948EA011139603A680D
:103B700002F00F024245704704D2AA69120940EAD6
:103B80000210A861704704D2EA6922F4E06210438F
:103B9000E861704704D2EA6922F070021043E861DC
:103BA000704704D2AA6922F070021043A8617047DE
:103BB00030B55C4B5E48196911F0380104D010290A
:103BC0000AD018290AD069E01A68940667D51968DE
:103BD000C1F3C101C84030BD584830BD9C6A996AE4
:103BE000DD6A5A6B05F00105C1F30511C2F3CC0281
:103BF0005543002900EE105AB8EE400A4CD014F09C
:103C0000030400EE901AF8EE600A02D0022C20D0D5
:103C100022E019689FED3E1A20EE010A8A0608D5B7
:103C20001968C1F3C101C84000F03CF8C1EE200A98
:103C300003E09FED382AC2EE200A186BF7EE001A57
:103C400000F02EF831EE000A70EE211A20EEA10AE3
:103C500013E09FED312A01E09FED302A186BDFED74
:103C60002C1AC2EE200A00F01BF800EE211AB7EE63
:103C7000000A31EE000A20EE800A186BC0F34620DD
:103C8000401C00EE900AF8EE600A80EE200ABCEEBE
:103C9000C00A10EE100A30BD002030BD284830BDEB
:103CA000C0F3080001EE100AB8EE411A704710B5D3
:103CB000FFF77EFF234A204B116812681A4CC1F3AC
:103CC0000321595C02F00F0201F01F01C84020607F
:103CD0009A5C164902F01F02D040086010BD80B502
:103CE000FFF7E5FF00F00FF8C3F3021206E080B51E
:103CF000FFF7DDFF00F007F8C3F30222895C01F053
:103D00001F01C84002BD104A0B49136870470000EC
:103D1000000000390024744C20BCBE4B0024744ABF
:103D20000020005200440258B0000020B4000020DF
:103D30000090D003AC000020FCAF000840787D016B
:103D400000093D00184402581C440258704782681C
:103D5000521C8260426832B10268531C03601170C9
:103D60004168491E4160704738B504460D4D2878BA
:103D7000A8B10D4A4FF47A711368B1FBF0F0B3FBB0
:103D8000F0F000F052F850B9102C08D20022214671
:103D90004FF0FF3000F021F8AC60002032BD012070
:103DA00032BD00BFA4000020B000002009010200C5
:103DB00002D4454881547047444B02F00F021A4424
:103DC00002F8041C704742490A6860F30A2240F274
:103DD000FA5060F31F420A60704770B53C4B1C6894
:103DE000C4F302230124C3F10705052D2EBF0F25BF
:103DF00004FA05F56D1E1E1D072E34BF0023DB1EC1
:103E00002940994004FA03F35B1E1A401143BDE8B0
:103E10007040CBE7010007D4012200F01F018A4067
:103E20002C4B400943F820207047401EB0F1807FA2
:103E300010B501D3012010BD2749284A4860F02061
:103E4000107000238B6007240C60002010BDBFF3AE
:103E50005F8F23480022016821F4803101600267EE
:103E600070471F4940F001000867086840F480303F
:103E70000860BFF34F8FBFF36F8F704710B5427864
:103E800018490A608B685B085B008B6042684A6077
:103E9000C27A037B447B120642EA0372837A42EAC7
:103EA000C342837B42EA8442C47B42EA4342437A70
:103EB00042EA0442047A007842EA032242EA4402D7
:103EC00002438A6010BD000000E400E018ED00E04D
:103ED0000CED00E000E100E010E000E023ED00E088
:103EE00024ED00E098ED00E040F0200070472DE95F
:103EF000F14FB0B0924604910DF142013A9A2B91E4
:103F000099464A7000200AE01AF8011B0498309A7A
:103F100090470028049000F044860D98401C0D90B6
:103F20009AF8000058B12528EED100200021002287
:103F30000790089109920A910B920C9104E00D9858
:103F400000F031BE41F001011AF8010F2028F9D02C
:103F500023280CD02B2804D02D2805D0302809D0B8
:103F60000BE041F00201EFE741F00401ECE741F022
:103F70000801E9E741F01001E6E72A280FD1D9F856
:103F8000002052F8040BC9F8002000280F9003D538
:103F900040420F9041F004010AF1010A14E00F922F
:103FA000DFF8082C0AE00F9B934205DA03EB830449
:103FB00000EB440030380F900AF1010A9AF8000033
:103FC000A0F130030A2BEED39AF800202E2A03D05A
:103FD0004FF0FF300E9029E01AF8010F2A2809D17E
:103FE000D9F8002052F8040BC9F800200E900AF10D
:103FF000010A1BE02D280CBF0AF1010A0020002253
:104000000E92DFF8A84B0BE040B90E9BA34205DAF5
:1040100003EB830502EB4502303A0E920AF1010AE6
:104020009AF80020A2F130030A2BEDD3ADF840102E
:104030000FF67C309AF8001000F0C2FE08B11AF8B2
:10404000010B8DF842009DF84200682805D19AF8CE
:10405000001068290CD1622006E06C2804BF9AF891
:1040600000106C2904D171208DF842000AF1010A78
:1040700012AA06921AF801BBBBF125002CD01C38FD
:1040800000F09781001F022840F29381133800F05E
:10409000BA84093800F08D81801E00F04F85401EE3
:1040A00000F0FC84401E022840F28381001F00F0D3
:1040B000F584401F00F0F280401E00F0A484401EF2
:1040C00000F0DA80C01E0ED0801E00F09C84C01E5E
:1040D00000F0998400F03DBD0122252107928DF862
:1040E000481000F042BDD9F8000050F8044BC9F860
:1040F0000000002C059440F0AB802B9948780028F4
:1041000000F0A1804FF0FF340FF6AC2000F064FE09
:10411000241A40F0468500F028BD01236A4602A912
:10412000304600F00DFE002840F03B85641EF4D1BF
:104130003096079C12AF74B1309E17F8011B04989B
:10414000B0470028049000F02C850D98401C641E98
:104150000D90F2D130960A9C3021002C8DF8001081
:104160000CDD309E01236A4602A9304600F0E8FDCE
:10417000002840F01685641EF4D13096059F089CF7
:1041800074B1309E17F8011B0498B04700280490C2
:1041900000F007850D98401C641E0D90F2D13096FA
:1041A0000B9C3021002C8DF800100CDD309E01237B
:1041B0006A4602A9304600F0C3FD002840F0F184B1
:1041C000641EF4D1309605980899099C471874B17B
:1041D000309E17F8011B0498B0470028049000F0A7
:1041E000E0840D98401C641E0D90F2D130960C9C1A
:1041F0003021002C8DF800100CDD309E01236A4622
:1042000002A9304600F09CFD002840F0CA84641EDC
:10421000F4D130969DF8400041077FF581AE202013
:10422000002D8DF800007FF77BAE309C01236A469D
:1042300002A9204600F084FD002840F0B2846D1EE3
:10424000F4D130946CE60FF65830059000F08DBC38
:104250000E9D002D04D5204600F0DEFD044608E04A
:104260002A460021204600F0E1FD002814BF041B6F
:104270002C46089400F079BCD9F8001051F8040BD2
:10428000C9F8001020F00002002121F0FF33CDE931
:10429000022312AC0594782100F04CBC2B9948788D
:1042A00020B14FF0FF340FF6C8202FE79DF84200F1
:1042B000622860D0682817D06A283FD06C2806D0C2
:1042C000712847D074282CD07A281DD062E0D9F804
:1042D000001051F8040BC9F80010002866D14FF007
:1042E000FF340FF6A42011E7D9F8001051F8040BA1
:1042F000C9F8001020B94FF0FF340FF68C2005E705
:104300000D99018000F031BCD9F8001051F8040B70
:10431000C9F80010002849D14FF0FF340FF668208B
:10432000F4E6D9F8001051F8040BC9F80010002881
:104330003CD14FF0FF340FF65020E7E6D9F80010DB
:1043400051F8040BC9F8001080B94FF0FF340FF694
:104350003820DBE6D9F8001051F8040BC9F800103A
:1043600020B94FF0FF340FF62020CFE60D9AD31777
:10437000C0E90023F9E3D9F8001051F8040BC9F89B
:10438000001020B94FF0FF340FF6FC10BEE60D9977
:104390000170EAE3D9F8001051F8040BC9F80010D5
:1043A00020B94FF0FF340FF6E010AFE60D99016031
:1043B000DBE39DF842004C2807BFD9F80010CA1D66
:1043C000D9F80000C21D22F00702C9F80020D2E986
:1043D00000010832C9F80020CDE90201C80F02D05F
:1043E00007982D210AE0BDF84000810702D5079803
:1043F0002B2103E0C00705D50798202112AA1154EC
:10440000401C079012A807994BF0200300EB010C09
:10441000DDE90201CDE92C01612BCDF814C021ACFE
:104420000BD00E98002848BF062105D404BF4BF0DE
:104430002000672801D101210E91DDE902014F0022
:1044400047EAD0777E15FF174FF0FF32974208BF3B
:10445000964210D1090341EA10510003002908BF18
:10446000002808D0ABF1610503211A2D089118D35B
:104470000FF6341110E0DDE902014A00521512F185
:10448000010F11D108030FD1ABF1610503211A2DE2
:1044900008911FD30FF618110322604600F0F2FCBA
:1044A00063E30FF60011F7E7DDE902016A4600F069
:1044B000F5FCCDE902014BF02000612811D10598EF
:1044C00030220270811C0591BBF1610F0CBF782175
:1044D000582102E00FF6D401DEE741700798801CF6
:1044E0000790DDE9020120F0000231F0004308BF2F
:1044F000002A02D10026002542E14BF02008B8F145
:10450000610F40F092800E99002947BF2120019051
:10451000491C0191019FDDE92C017F1C0022002331
:10452000DDE9024500F0F2FC38BF85F00045009857
:104530008DF88420001F002F00900DF1850632DDDC
:10454000204629460022002300F0FAFC2BD21C2230
:1045500000F010FD04460D4600F08EFDFF1F002FF9
:10456000804609DD00F08FFD02460B4620462946B5
:1045700000F090FD04460D46F01D0721B8F1000F34
:104580000CDD491E5EBF08F00F0200F8012D4FEA56
:104590002818F3D502E0002200F8012D491EFAD5B3
:1045A000C61D002FCCDC0DF18500361A01980DF1E7
:1045B00085048642D8BF304600282FD4B04206DAA0
:1045C0000DF185010A5C082AA8BF0F2100DA00213D
:1045D000024621AB134400E0401E13F80159521E5D
:1045E0008D42F9D00F2904D10DF185018B5C5B1C44
:1045F0008B54002A04D50099091D21AC401C009160
:10460000411E0BD4621813783033DDB23A2DA4BFAB
:104610005B443A3B491E02F80139F4D50E9A002A50
:1046200040F1AC80411E0E91A8E00099DFF8002710
:1046300047F29750414391FBF2F20092DDE92C459D
:10464000C2F10702002A25F0004504DD2046294674
:1046500000F04AFB0BE052420020DFF8D81600F0D1
:1046600043FB02460B462046294600F01CFD04464B
:104670000D46B8F1660F06BF009F0A3706270E9851
:104680003F18142FC8BF142730208DF884000DF177
:104690008506002F34DD2046294600F00DFD014639
:1046A0000A4606F1080304200A26B2FBF6F606EBDA
:1046B000860EA2EB4E02303203F8012C0A22B6FB22
:1046C000F2F202EB820EA6EB4E063036401E03F8E5
:1046D000026DE9D1083F002F03F10806D9DD084635
:1046E00000F0F1FC02460B462046294600F0D2FCC1
:1046F0000022DFF8443600F0EDFC04460D46CAE720
:104700000DF18500361A0DF1850404E00098401E75
:10471000761E0090641C20783028F7D0B8F1660F20
:1047200002D10098401C04E0B8F1650F0CBF0120D5
:1047300000200E9940188642B8BF701E00281DD474
:10474000B04204DA215C3429C8BF392100DC3021B1
:104750000246631E9D1800E0401E15F80169521EB6
:104760008E42F9D0392902D1A15C491CA154002AFA
:1047700004D50099491C1C46401C00910646009D2A
:1047800000F0B2FC406A0778DDF8388030B20028CB
:1047900002DC01260FF21C644BF02000662808BFE3
:1047A0006D1C16D0672845D128B210F1040F47DBE5
:1047B000404545DA9DF840006D1C010703D430B236
:1047C0004045D8BF804628B2B8EB000848BF4FF03C
:1047D00000080FFA85FBBBF1000F00F3B3800898C7
:1047E000411C0891302205990A54B8F1000F03DCEE
:1047F0009DF84000010704D50898411C08910599CF
:104800000F5418EB0B0FB8BFC8F100052DB268426A
:10481000454432B20B909542B8BF2E46059B08988E
:1048200036B2099632462146184400F02BFBAD1BE8
:104830000C95D1E0BBF1610F17D14FF0700B19E06F
:1048400030B2404504DA9DF840100A0758BF804650
:10485000B8F1010848BF4FF00008BBF1670F14BF63
:104860004FF0450B4FF0650B04E0BBF1410F08BF63
:104870004FF0500B0898411C0891B8F1000F0599B2
:1048800014F8012B0A5403DC9DF8400001071AD5E7
:104890000898411C0891B8F1000F05990F5412DDDA
:1048A000761E30B28045B8BF46460598089B32B2A6
:1048B0002146184400F0E6FA089836B230180890FD
:1048C000A8EB06000B9005980899014428B200282F
:1048D00081F800B003D42B204870891C04E02D22FD
:1048E0004A700546891C6D4200202CAA0AE02B461E
:1048F0000A2593FBF5F505EB8504A3EB440302F8C9
:10490000013B401C2DB2002DF1DC012806DC4BF0F0
:104910002002652A04BF302201F8012B00282CAAAE
:1049200008D1302001F8010B06E0401E135C303343
:1049300001F8013B0028F8DC059A08981044091A90
:10494000099149E030B229B288421CDA0598089BE7
:1049500032B22146184400F095FA089936B271181F
:104960000891ABEB0600B8F1000F0B9003DC9DF84B
:104970004000020704D5059847540999491C09913C
:10498000CDF8308028E00598089B2AB221461844CB
:1049900000F078FA0898761B5844B8F1000F089098
:1049A00003DC9DF840100A0703D5411C08910599C6
:1049B0000F5430B28045B8BF46460598089B32B2C6
:1049C00004EB0B01184400F05DFA089836B2301879
:1049D0000890A8EB06000B909DF8400000F0140032
:1049E000102840F0C280079A08980B9982180998FD
:1049F0008A1882180C980F998018884280F2B58026
:104A0000081A0A90B1E09DF84200622808D0682890
:104A10000ED06A2814D06C281FD0712810D01CE04A
:104A2000D9F8001051F8040BC9F80010C0B21AE010
:104A3000D9F8001051F8040BC9F8001080B212E048
:104A4000D9F80000C21D22F00702C9F80020D2E9FF
:104A500000010832C9F8002006E0D9F8001051F82A
:104A6000040BC9F800100021CDE902019DF84000B7
:104A700002075AD5DDE90201002908BF002854D0F9
:104A80004BF02002782A50D1079812A930230B54FA
:104A9000401C421C079201F800B046E09DF842001D
:104AA000622808D068280ED06A2814D06C281FD03D
:104AB000712810D01CE0D9F8001051F8040BC9F887
:104AC000001040B21AE0D9F8001051F8040BC9F8F0
:104AD000001000B212E0D9F80000C21D22F0070257
:104AE000C9F80020D2E900010832C9F8002006E028
:104AF000D9F8001051F8040BC9F80010C117CDE91E
:104B00000201002902D507982D210AE0BDF84000D6
:104B1000810702D507982B2103E0C00705D5079828
:104B2000202112AA1154401C079012A80799014491
:104B30000591594602A800F04DF816E001200790B3
:104B4000D9F8001051F8040BC9F800108DF848008E
:104B50000BE001202521BBF1000F07908DF84810D4
:104B600003D0022107918DF849B00F9D07980A994B
:104B70002D1A08986D1A0B992D1A09986D1A0C990F
:104B80002D1A9DF840006D1A41073FF5D2AA20204A
:104B9000002D8DF800007FF7CCAA309E2C46FFF741
:104BA000BCBA4FF0FF3031B0BDE8F08FCBCCCC0CAD
:104BB000686A6C747A4C00007072696E74665F7318
:104BC0003A2062616420257320617267756D656E9D
:104BD000740000002DE9FC4D0646884637694046C2
:104BE0006F2808BF082405D0FFF77EF9782814BF86
:104BF0000A241024D6E900013C2582468B46B8F1F0
:104C0000640F18BFB8F1690F05D1002903D5DAF197
:104C1000000A6BEB4B0BBBF1000F08BFBAF1000FA2
:104C20000CD1306B50B9082C3AD196F838000107F6
:104C300036D530223B2587F83B2031E08DF80080C7
:104C40005046594622460023FEF70EFE3032D0B2BF
:104C50006D1E3A2801950EDA7A555046594622467D
:104C60000023FEF701FE82465FEA010B08BFBAF19E
:104C7000000F05D108E09DF800001218513AEBE74B
:104C8000F06879198842DBD3082C09D196F83800EE
:104C9000010705D5785D302802D06D1E302078558B
:104CA000C5F13C02306BB26179198242F16008DAD9
:104CB000318F821A4FF6EF70014031873262BDE8C2
:104CC000F38D00280ED596F8380000F01400102857
:104CD00008D1736B7069316A1B1A5B1A9B1A002B1F
:104CE000C8BF3362BDE8F38D2DE9D04306460F46B9
:104CF00014464FF00008DFF8449012E0E00707D5B3
:104D000042464B463046394600F0E4F906460F4627
:104D10004046494642464B4600F0DCF96410804666
:104D20008946002CEAD130463946BDE8D0830000E0
:104D3000A08601000000F03F84D797410000244086
:104D4000F8B505460E4617461C4600205CB117F81C
:104D5000011BB068A847B06030B1F06A401CF06237
:104D60000020641EF3D1F2BD4FF0FF30F2BD000011
:104D70007072696E74665F733A20256E2064697381
:104D8000616C6C6F776564007072696E74663A204E
:104D900062616420256E20617267756D656E7400B6
:104DA000000000006E616E004E414E00696E6600AC
:104DB000494E460030000268531C03601170704772
:104DC000C9B202788A421AB11CBF10F8012FF9E764
:104DD00018BF002070472E0080B500B906A0054915
:104DE0000B681BB122220021984701E000F080F9F6
:104DF000222002BDBC060020636F6E73747261696D
:104E00006E742068616E646C65723A206261642021
:104E10006D6573736167650000F1010310F8011B94
:104E200011B110F8011BFBE7C01A7047C9B2830724
:104E300006D0521E22D310F8013B9942F7D11FE051
:104E4000083A13D302F1040241EA012141EA014187
:104E500050F8043B121F21BF4B40A3F1013C2CEA48
:104E6000030C1CF0803FF3D0C9B2001F0832521E61
:104E700024BF10F8013B91EA030FF8D818BF0120B6
:104E8000401E70474AB1000011F8013B521E00F865
:104E9000013B1CBF11F8013BF8E7704710B5144601
:104EA00000F002F8226010BDC1F30A5343B14A007A
:104EB00012F5001F28D2A3F2FE32A1EB0251704777
:104EC00050EA410C20D001F0004C31EA0C01B1FA5B
:104ED00081F204BFB0FA80F3D2180B3AB2F120038A
:104EE0002CBF00FA03F1914041EA0C013EBFC2F130
:104EF000200C20FA0CF319439040524240F2FD334B
:104F0000D21A01EB035170470022704741EA030CAB
:104F100050EA4C0C52EA0C0C4FF4001C09D307D099
:104F20001CEB410F9CBF1CEB430F8B4208BF82421E
:104F300070471CEB430FFBD8994208BF9042704763
:104F400041EA030C50EA4C0C52EA0C0C4FF4001CE2
:104F500009D307D01CEB410F9CBF1CEB430F9942B8
:104F600008BF904270471CEB410FFBD88B4208BF33
:104F70008242704700B541EC100B104600F004F877
:104F800051EC100B00BD00BF020030EE101B40F2D0
:104F9000FF7C37D41CEA115313D063456BD09B18A8
:104FA000634504D201EB025120EE101B704701F063
:104FB000004141EA0C51002041EC100BAFF300809E
:104FC000704710EE100B50EA410054D0B2F57F7FCD
:104FD00008D202EB5C010905002041EC110B20EE28
:104FE000010B70474FF0FE41002341EC113B20EED6
:104FF000010BB2F57E7230EE101B4FEA410342EB1B
:105000005353CDE752421CEA115316D0634532D0B8
:105010009A4204D2A1EB025120EE101B70475B1E96
:10502000D21AA1EB035120EE101B372A0CD300201B
:1050300001F0004141EC100BC0E710EE100B50EAFC
:10504000410018D0372AF2D2C2EB5C0211050020D1
:1050500041EC110BF1EE100A20F01F0121F4F85180
:10506000E1EE101A20EE010BF1EE101AE1EE100A3B
:1050700011F0080FA2D1704741EC100BBDEEC00B30
:1050800010EE100A704700EE100AB8EEC00B51EC9B
:10509000100B704741EC100B43EC112B30EE410B21
:1050A00051EC100B704741EC100B43EC112B80EED0
:1050B000010B51EC100B704741EC100BBCEEC00B18
:1050C00010EE100A704700EE100AB8EE400B51ECDB
:1050D000100B704741EC100B43EC112B20EE010B31
:1050E00051EC100B7047704700487047E0000020FB
:1050F000012000F001B8704780B5AFF30080024A8C
:1051000011001820ABBEFBE72600020000000000E3
:105110000000000000000000000004040404040477
:105120000004000000140A0A000000000000000053
:10513000000014143F140A3F0A0A000000041E1560
:1051400005060C14150F0400000012150D0A142C8E
:105150002A1200000000040A0A1E15150936000074
:105160000002020100000000000000000020100802
:1051700008080808081020000002040808080808A9
:105180000804020000000004150E0E1504000000C3
:1051900000000404041F04040400000000000000D8
:1051A000000000000002020100000000001F0000DB
:1051B00000000000000000000000000000020000ED
:1051C00000100808080404020202010000000E1189
:1051D00011111111110E0000000004060404040452
:1051E000040E000000000E1111080402011F00004F
:1051F00000000E11100C1010110E00000000080C21
:105200000A0A091E0818000000001F01010F1010F3
:10521000110E000000000E09010F1111110E000007
:1052200000001F09080404040404000000000E111B
:10523000110E1111110E000000000E1111111E109F
:10524000120E000000000000040000000004000036
:10525000000000000004000000040400002010080A
:105260000402040810200000000000001F00001FBE
:1052700000000000000204081020100804020000D2
:1052800000000E11110804040004000000000E11BB
:105290001915151D011E0000000004040C0A0A1E49
:1052A0001233000000000F12120E1212120F000033
:1052B00000001E1101010101110E000000000F127B
:1052C00012121212120F000000001F120A0E0A0220
:1052D000121F000000001F120A0E0A02020700003F
:1052E00000001C1201013911120C000000003312E1
:1052F000121E12121233000000001F0404040404E2
:10530000041F000000003E080808080808090700FC
:10531000000037120A060A0A1237000000000702CE
:1053200002020202223F000000001B1B1B1B15157E
:105330001515000000003B1216161A1A121700006D
:1053400000000E1111111111110E000000000F12BA
:10535000120E02020207000000000E1111111117B7
:10536000190E180000000F12120E0A121237000058
:1053700000001E1101060810110F000000001F158B
:1053800004040404040E000000003312121212126E
:10539000120C000000003312120A0A0C0404000070
:1053A00000001515150E0A0A0A0A000000001B0A63
:1053B0000A04040A0A1B000000001B0A0A04040471
:1053C000040E000000001F0908040402121F000060
:1053D000001C04040404040404041C00000202026F
:1053E0000404080808100000000E0808080808084F
:1053F00008080E0000040A00000000000000000081
:1054000000000000000000000000003F0004000059
:10541000000000000000000000000000000C121C52
:10542000123C000000000302020E1212120E0000D5
:1054300000000000001C1202021C000000001810F6
:10544000101C1212123C000000000000000C121E82
:10545000021C000000003804041E0404041E0000A6
:1054600000000000003C120C021E221C000003027F
:10547000020E12121237000000000400000604049D
:10548000040E000000000800000C080808080807C7
:1054900000000302023A0A0E12370000000007045F
:1054A00004040404041F000000000000000F151590
:1054B0001515000000000000000F12121237000046
:1054C00000000000000C1212120C0000000000008E
:1054D000000F1212120E020700000000001C121230
:1054E000121C103800000000001B0602020700001A
:1054F00000000000001E020C101E0000000000044E
:10550000040E04040418000000000000001B121226
:10551000123C0000000000000037120A0C040000DA
:10552000000000000015150E0A0A0000000000002F
:10553000001B0A040A1B0000000000000037120ACA
:105540000C04040300000000001E0804041E0000F8
:1055500000180808080408080808180008080808BF
:1055600008080808080808080006040404080404D9
:1055700004040600022518000000000000000000DE
:10558000000000000000000000000000000000001B
:1055900000000008080808080808000018180000A3
:1055A00000486C2412000000000000000000000011
:1055B0000000002424247F1212127F121212000015
:1055C0000000081C2A2A0A0C1828282A2A1C080865
:1055D00000000022251515152A58545454220000A5
:1055E0000000000C1212120A76252911916E00009B
:1055F0000006060403000000000000000000000098
:10560000004020101008080808080810102040006A
:1056100000020408081010101010100808040200FE
:105620000000000008086B1C1C6B0808000000004C
:1056300000000000080808087F08080808000000AB
:105640000000000000000000000000000606040347
:105650000000000000000000FE000000000000004C
:10566000000000000000000000000000060600002E
:1056700000008040402020101008080404020200AE
:1056800000000018244242424242424224180000D4
:10569000000000080E08080808080808083E000076
:1056A0000000003C4242422020100804427E0000DC
:1056B0000000003C4242201820404042221C0000D2
:1056C000000000203028242422227E2020780000A0
:1056D0000000007E0202021A26404042221C000006
:1056E000000000382402021A264242422418000018
:1056F0000000007E22221010080808080808000098
:105700000000003C4242422418244242423C000035
:10571000000000182442424264584040241C00000B
:105720000000000000001818000000001818000019
:10573000000000000000000800000000000808044D
:10574000000000402010080402040810204000005F
:105750000000000000007F0000007F00000000004B
:10576000000000020408102040201008040200007D
:105770000000003C42424640201010001818000073
:105780000000001C225A555555552D42221C000080
:105790000000000808181414243C224242E70000CC
:1057A0000000001F2222221E22424242221F00002D
:1057B0000000007C4242010101010142221C000064
:1057C0000000001F2242424242424242221F000089
:1057D0000000003F4212121E12120242423F00001D
:1057E0000000003F4212121E1212020202070000C5
:1057F0000000003C2222010101712122221C000034
:10580000000000E7424242427E42424242E700003C
:105810000000003E0808080808080808083E0000C4
:105820000000007C10101010101010101010110F3C
:105830000000007722120A0E0A12122222770000BC
:10584000000000070202020202020202427F000080
:1058500000000077363636362A2A2A2A2A6B0000BC
:10586000000000E346464A4A525252626247000034
:105870000000001C2241414141414141221C0000E5
:105880000000003F424242423E0202020207000084
:105890000000001C2241414141414D53321C600037
:1058A0000000003F4242423E1212222242C7000044
:1058B0000000007C4242020418204042423E0000A8
:1058C0000000007F4908080808080808081C0000B4
:1058D000000000E74242424242424242423C000053
:1058E000000000E742422224241414180808000093
:1058F0000000006B494949495555362222220000D3
:10590000000000E7422424181818242442E700006D
:10591000000000772222141408080808081C000060
:105920000000007E2120101008040442423F0000C5
:105930000078080808080808080808080808780017
:105940000000020204040808081010202020404033
:10595000001E1010101010101010101010101E004B
:1059600000384400000000000000000000000000BB
:10597000000000000000000000000000000000FF28
:105980000006080000000000000000000000000009
:10599000000000000000003C4278444242FC00004D
:1059A000000000030202021A26424242261A0000A8
:1059B00000000000000000384402020244380000E9
:1059C00000000060404040784442424264D80000F9
:1059D000000000000000003C427E0202423C000049
:1059E000000000F08808087E08080808083E00004B
:1059F000000000000000007C22221C023C42423CCD
:105A0000000000030202023A4642424242E700001E
:105A10000000000C0C00000E08080808083E0000FA
:105A20000000003030000038202020202020221EDE
:105A30000000000302020272120A1612227700000E
:105A40000000000E0808080808080808083E0000C2
:105A5000000000000000007F9292929292B7000036
:105A6000000000000000003B4642424242E70000C6
:105A7000000000000000003C42424242423C000064
:105A8000000000000000001B26424242221E0207C6
:105A9000000000000000007844424242447840E0A8
:105AA00000000000000000774C040404041F000004
:105AB000000000000000007C42023C40423E00002A
:105AC000000000000008083E080808080830000030
:105AD00000000000000000634242424262DC00001D
